:1000000016C030C02FC02EC02DC02CC02BC02AC09F
:1000100051C128C027C02AC325C024C06CC422C037
:1000200021C020C01FC08000000101010000112478
:100030001FBECFE5D4E0DEBFCDBF11E0A0E6B0E04B
:10004000E8E4F9E102C005900D92A632B107D9F7B4
:1000500011E0A6E2B1E001C01D92A237B107E1F7BD
:10006000F1DA70CCCDCF29E088E190E00FB6F894BA
:10007000A89581BD0FBE21BDFFCF0F931F93CF93D6
:10008000DF93CDB7DEB727970FB6F894DEBF0FBE6C
:10009000CDBF89019A01AB01BC01CE01019658D8B0
:1000A000CE01019685D527960FB6F894DEBF0FBE18
:1000B000CDBFDF91CF911F910F910895CF93DF9323
:1000C000CDB7DEB727970FB6F894DEBF0FBECDBF12
:1000D000CE010196E2D4CE0101965CD627960FB6EA
:1000E000F894DEBF0FBECDBFDF91CF9108952F9260
:1000F0003F924F925F926F927F928F929F92AF92B8
:10010000BF92CF92DF92EF92FF920F931F93CF9304
:10011000DF9300D000D000D0CDB7DEB729013A017F
:100120004B018E839D832090680130906901B091CE
:100130006A01BC83F0916B01E0916C01B0916D019B
:1001400080916E018A83A0916F01AB8391014C81F4
:100150005F2F6E2F7B2F9A2FA0E0DCDB49F19201FD
:10016000A301B4018E819D81A0906001B0906101D6
:10017000C0906201D0906301E0906401F09065014D
:100180000091660110916701BCDB5101CC80DF2E2C
:10019000EE2EFB2E0A811B81CDDA52016301740120
:1001A0000E811D8199DB29013A014B018E839D83CC
:1001B0009201A301B4018E819D8126960FB6F89419
:1001C000DEBF0FBECDBFDF91CF911F910F91FF908A
:1001D000EF90DF90CF90BF90AF909F908F907F90E7
:1001E0006F905F904F903F902F90089588B3877CD9
:1001F00088BB809126018F5F883018F48093260198
:1002000002C01092260125B3E0912601F0E0E057EC
:10021000FF4F808134E0839FC0011124282B25BB30
:1002200025B3E0912601F0E0E057FF4F808134E0F4
:10023000839FC0011124836C822385BB28B3E09186
:100240002601F0E0E95DFE4F808138E0839FC00128
:100250001124282B28BB28B3E0912601F0E0E95DAA
:10026000FE4F808138E0839FC0011124876C822378
:1002700088BB08951F93CF93DF93C8E5D1E010E0CA
:100280006991812F04D51F5F1831D1F7DF91CF918C
:100290001F9108951F93CF93DF93C8E5D1E010E03D
:1002A000812FEED489931F5F1831D1F7DF91CF9161
:1002B0001F9108951F920F920FB60F9211242F9342
:1002C0003F934F935F936F937F938F939F93AF93DE
:1002D000BF93EF93FF938ADFFF91EF91BF91AF91AF
:1002E0009F918F917F916F915F914F913F912F914E
:1002F0000F900FBE0F901F9018952F923F924F9224
:100300005F926F927F928F929F92AF92BF92CF92A5
:10031000DF92EF92FF920F931F93CF93DF93CDB7AE
:10032000DEB729970FB6F894DEBF0FBECDBF190117
:100330002A013B014C011E830D83A0E0EBDA09F496
:1003400054C0B22D3F8249865A826B827C82F82D3E
:10035000E92D19829AE0A92EB12CC12CD12CE12CC7
:10036000F12C00E010E02B2F3F8149855A816B81F1
:100370007C818F2F9E2FDED9B22F3F8349875A83EE
:100380006B837C83F82FE92F29812F5F29832B2F03
:10039000A0E0C0DAF9F68D819E81A9818A0F911DB6
:1003A000019798878F838AE0A82EB12CC12CD12C7D
:1003B000E12CF12C00E010E09101A201B301C40195
:1003C000B7D9205DEF81F88520839101A201B301A7
:1003D000C401B0D919012A013B014C01F981F15046
:1003E000F983A0E097DAB9F604C080E3AD81BE815D
:1003F0008C9329960FB6F894DEBF0FBECDBFDF9168
:10040000CF911F910F91FF90EF90DF90CF90BF9011
:10041000AF909F908F907F906F905F904F903F90A4
:100420002F9008952F923F924F925F926F927F92FA
:100430008F929F92AF92BF92CF92DF92EF92FF92F4
:100440000F931F93CF93DF93FC01108211821282CE
:1004500013821482158216821782DB01ED018C91C2
:100460008823D9F120813181428153816481758152
:100470008681978101E0F9D919012A013B014C01DC
:1004800002E0F3D959016A017B018C019101A201BB
:10049000B301C40121DA59016A017B018C01208377
:1004A000B1824283D3826483F58286831783119657
:1004B000288120532A3098F430E040E050E060E09A
:1004C00070E080E090E008DA208331834283538338
:1004D0006483758386839783C1CF81E001C080E008
:1004E000DF91CF911F910F91FF90EF90DF90CF9010
:1004F000BF90AF909F908F907F906F905F904F9044
:100500003F902F900895EF92FF920F931F93CF93F8
:10051000DF93CDB7DEB764970FB6F894DEBF0FBE9A
:10052000CDBF8C01DC019C91913709F49CDDF80171
:1005300001900020E9F73197E01BF10B329708F4A6
:100540007FC01D861E861F86188A198A1A8A1B8AF2
:100550001C8AF80181818436C1F040F4823609F0AA
:100560006FC020E6E22E21E0F22E13C08C3641F05F
:10057000843709F065C07E01FDE0EF0EF11C09C073
:1005800048E5E42E41E0F42E04C038E6E32E31E0E5
:10059000F32E19821A821B821C82FE01359628E0F6
:1005A000DF011D922A95E9F7923719F0973759F133
:1005B00047C08437B9F482DD2D873E874F87588B3B
:1005C000698B7A8B8B8B9C8BD8011296EC91EF33D5
:1005D00049F48DDD2D873E874F87588B698B7A8B49
:1005E0008B8B9C8BF7012081318142815381648107
:1005F00075818E010F5F1F4F868197817EDE61E0DE
:10060000C80186D31BC0B8016E5F7F4FC7010ADFE8
:100610008823B1F061E080E091E07AD3D8011196AF
:100620008C91843751F42D853E854F855889698991
:100630007A898B899C8921DD01C01CDE81E001C0A3
:1006400080E064960FB6F894DEBF0FBECDBFDF9199
:10065000CF911F910F91FF90EF90089554DF81117A
:1006600004C061E083E091E053C308951F920F92AC
:100670000FB60F921124DF92EF92FF920F931F9308
:100680002F933F934F935F936F937F938F939F939A
:10069000AF93BF93EF93FF93CF93DF93CDB7DEB7C5
:1006A0002C97DEBFCDBF17D38B3651F128F4893696
:1006B000E9F08A3681F083C08F3669F1853709F019
:1006C0007EC08AB59BB5813A9B4308F098C08AB535
:1006D0009BB5019608C08AB59BB5892B09F48FC0DC
:1006E0008AB59BB501979BBD8ABD89C088B599B570
:1006F000813A9B4308F083C088B599B5019608C03C
:1007000088B599B5892B09F47AC088B599B5019750
:1007100099BD88BD74C060E088E091E0F9D219828B
:100720001A821B821C82FE01359688E0DF011D9231
:100730008A95E9F74AB55BB5FE0131967F018F01D5
:100740009A0140E050E060E070E080E090E0D5DDAC
:1007500060E0C701DDD260E080E191E0D9D25CE0E9
:10076000D52ED701ED2D1D92EA95E9F748B559B57B
:100770009A0140E050E060E070E080E090E0BDDD94
:1007800060E0C701C5D260E08AE191E0C1D2D70143
:100790001D92DA94E9F740917001509171019A012C
:1007A00040E050E060E070E080E090E0A6DD60E0D6
:1007B000C701AED261E085E291E0AAD220C0E0910B
:1007C0005701882341F08A3031F08D3021F08B3190
:1007D00011F0E63260F0F0E0E15DFE4F10828B3107
:1007E00019F08FE291E03ADF1092570108C091E0D2
:1007F0009E0F90935701F0E0E15DFE4F80832C96B1
:100800000FB6F894DEBF0FBECDBFDF91CF91FF9141
:10081000EF91BF91AF919F918F917F916F915F9178
:100820004F913F912F911F910F91FF90EF90DF908B
:100830000F900FBE0F901F901895CF92DF92FF92EE
:100840000F931F93CF93DF93CDB7DEB727970FB6E4
:10085000F894DEBF0FBECDBF89019A01AB01BC0188
:10086000CE01019675D4E7E2F1E040E650E060E0A9
:1008700070E020E030E0F12C6A01C60ED71ED601F0
:100880008C9101E010E00C0F1D1F080F111DD80105
:100890008C9190E0D60111960C9002C095958795A9
:1008A0000A94E2F781709927022E01C0880F0A94FA
:1008B000EAF78F292F5F3F4F6E5F7F4F233031055F
:1008C00011F0F82ED9CF81934A5F5F4FB1E0EF323C
:1008D000FB0769F627960FB6F894DEBF0FBECDBFB3
:1008E000DF91CF911F910F91FF90DF90CF900895EE
:1008F000E5DBFDDBA2CF1F920F920FB60F92112402
:100900008F939F9384B195B19093710180937001FF
:100910009F918F910F900FBE0F901F9018958B9AFB
:1009200098E080FF02C0939A01C093980000949AC7
:1009300000C0949800C08695915099F78B980895BF
:1009400048E080E090E096958795839B03C020E87F
:1009500030E002C020E030E0822B932B949A00C05C
:10096000949800C0415079F70895929A92E09A9530
:10097000F1F700C08160D3DFE3DF929892E09A95AF
:10098000F1F700C00895CF93DF931F92CDB7DEB784
:10099000929A92E09A95F1F700C08E7F6983BFDF4B
:1009A0006981862FBCDF9298E2E0EA95F1F700C0FA
:1009B0000F90DF91CF910895CF93DF9360E08EE8A1
:1009C000E2DF60E080E9DFDF929A82E08A95F1F76A
:1009D00000C08EEBA4DFC6E2D0E0FE0185919491C9
:1009E0009EDF219680E0CE32D807B9F7929882E058
:1009F0008A95F1F700C060E88EE8DF91CF91C3CF10
:100A0000CF93DADF60E08EE8BEDF929A82E08A95CB
:100A1000F1F700C08EEF83DFCCE180E080DFC150D2
:100A2000E1F789EC7CDF89EF7ADF81E378DF929868
:100A300082E08A95F1F700C060E88EE8CF91A3CFFD
:100A4000CF9392988A9A94988C9A93988B988FE8DF
:100A50008CDF982F9F7711F080E01DC0C0E8C80F91
:100A60006C2F8EE890DF8FE880DFC813F5CFC111BF
:100A700003C060E88EE887DF89EF77DF893C11F0FB
:100A8000BFDF08C08BEF71DF893FD1F78DEF6DDFDE
:100A90008133B1F781E0CF910895CF92DF92EF9249
:100AA000FF920F931F93CF93DF93CDB7DEB72897B5
:100AB0000FB6F894DEBF0FBECDBF8C01929A22E034
:100AC0002A95F1F700C08FEB2ADFCE0101967C0159
:100AD0006E0199E0C90ED11C33DFF70181937F01CC
:100AE000EC15FD05C9F79298F2E0FA95F1F700C010
:100AF000298127FD4DC0922F9077969596959695D2
:100B0000892F880F880F890F2F70820FF801868335
:100B10002A81922F9077969596959695892F880F92
:100B2000880F890F2F70820F85832B81922F9073EE
:100B3000969596959695892F880F880F890F2F7017
:100B4000820F84832C81922F90739695969596951B
:100B5000892F880F880F890F2F70820F82839D81C4
:100B600094FB222720F9220F822F880F880F820FF3
:100B70009F70890F81838F81982F92959F708F70BE
:100B8000FAE09F9F800D1124F801808381E001C06D
:100B900080E028960FB6F894DEBF0FBECDBFDF9180
:100BA000CF911F910F91FF90EF90DF90CF9008951C
:100BB000EF92FF920F931F93CF93DF93CDB7DEB7E2
:100BC00028970FB6F894DEBF0FBECDBFFC0186811B
:100BD0002AE0622F8DD530E1839F900D11249983F7
:100BE000858186D530E1839F900D11249A8384817D
:100BF0007FD530E1839F900D11249B83828178D52E
:100C000030E1839F900D11249C83818171D530E167
:100C1000839F900D11249D8380816AD5E0E18E9F92
:100C2000900D11249F83188660E08EE8ACDE929AC6
:100C3000F2E0FA95F1F700C08EEB71DE8E010F5FE6
:100C40001F4F7E0129E0E20EF11CF80181918F0116
:100C500066DE0E151F05C9F79298F2E0FA95F1F7D6
:100C600000C060E88EE828960FB6F894DEBF0FBE8D
:100C7000CDBFDF91CF911F910F91FF90EF9083CE69
:100C80008C3118F4880F8F5370CE80E00895CF9385
:100C9000DF93C82FD62F8C3168F460E08EE873DEC6
:100CA0008C2F880F6D2F80546EDE60E88EE8DF9108
:100CB000CF9169CEDF91CF91089586E189B910BCBB
:100CC00086E880BD88E18AB90895579A08955D9BAA
:100CD000FECF8CB908955F9BFECF8CB108950F9322
:100CE0001F93CF93DF938B01EC0101501109080F83
:100CF000191FC017D10730F01982DF91CF911F91D2
:100D00000F91089588818A30B9F3E5DF8993F1CF97
:100D1000EF92FF920F931F93CF93DF931F92CDB764
:100D2000DEB78C017C01F80101900020E9F73197D2
:100D3000EE16FF0638F4F70181917F016983C7DF62
:100D40006981F1CF662349F08AE00F90DF91CF915E
:100D50001F910F91FF90EF90BACF0F90DF91CF913D
:100D60001F910F91FF90EF9008959C018370992738
:100D7000892B71F4C90164E670E0C6D4892B11F0A7
:100D800081E00895C90160E971E0BED4892BC1F307
:100D900080E008952F923F924F925F926F927F92E0
:100DA0008F929F92AF92BF92CF92DF92EF92FF927B
:100DB0000F931F93CF93DF93CDB7DEB763970FB633
:100DC000F894DEBF0FBECDBF1C01DC010C9110E01A
:100DD0000053184F15966C90C801C7DF8D87B4E992
:100DE000B00FB987F101268130E040E050E060E0CB
:100DF00070E080E090E03551444953486109710941
:100E000081099109722E832E942E5983562EB72F65
:100E1000A82F492EA4802A2D30E040E050E060E069
:100E200070E080E090E004E020D5B12CC12CD12C02
:100E3000E12CF12C00E010E064D559016A017B013E
:100E4000E82F192F04E011D50E2F5BD504E00DD546
:100E500059016A017B018C01272D382D492D5981BB
:100E6000652D7B2F8A2F942D37D54901E42F752EC0
:100E7000B62FA72F582E492E262D30E040E050E007
:100E800060E070E0CB0169823A834B835C836D83C1
:100E90007E838F83988760E070E080E090E004E0DC
:100EA000E4D4A980BA80CB80DC80E12CF12C00E076
:100EB00010E027D502E0D9D459016A017B018C01E9
:100EC00094014E2F572D6B2F7A2F852D942D04D5FD
:100ED00029833A872A013B018B879C87298530E04B
:100EE00040E050E060E070E080E090E003E0BDD4DE
:100EF00049014F875E87B62FA72FF82FE92FB5D46A
:100F000059016A017B018C0194014F855E856B2F2D
:100F10007A2F8F2F9E2FE0D4A984B12CC12CD12CF5
:100F2000E12CF12C00E010E0D7D459016A017B01DB
:100F3000E82F192F04E099D40E2FE3D459016A0148
:100F40007B01E82F192F04E090D40E2FDAD4590139
:100F50006A017B01E82F192F04E087D40E2FD1D42A
:100F600007E083D459016A017B018C0129813A850C
:100F7000A201B3018B859C85AFD429013A014B01B5
:100F80008A879983298530E040E050E060E070E096
:100F900080E090E0AFEFA9D4E4E6AE2EB12CC12CF6
:100FA000D12CE12CF12C00E010E0C4D359016A01EE
:100FB0007B01E82F192F02E058D40E2FA2D459013B
:100FC0006A017B01E82F192F04E04FD40E2F99D42A
:100FD00059016A017B01E82F192F04E046D40E2F36
:100FE00090D407E042D459016A017B018C0192013F
:100FF000A301B4018A85998184D42A8B39834A87D5
:101000005B876C877E878F87988B298530E040E0EF
:1010100050E060E070E080E090E0ABEB66D402E08E
:101020003FD4298B432E542E652E762E872E982E54
:101030009B8B298530E040E050E060E070E080E08C
:1010400090E0255D3E4F4F4F5F4F6F4F7F4F8F4F6B
:101050009F4FF0E9AF2EBB24B394C12CD12CE12CCF
:10106000F12C00E010E066D359016A017B018C018C
:101070002989342D452D562D672D782D892D9B8955
:101080002BD4F101A281EA2EF12CF1E0EF1AF10844
:10109000D10111961C91AD85BDE0AB9FF0011124EB
:1010A000E10FF11DEE0FFF1FEE0FFF1FEC56FF4F7C
:1010B0000190F081E02DEE0EFF1E5701C12CD12CC6
:1010C000E12CF12C00E010E007D459016A017B010A
:1010D000E82F192F02E0C9D30E2F13D459016A014A
:1010E0007B01E82F192F04E0C0D30E2F0AD4590139
:1010F0006A017B01E82F192F04E0B7D30E2F01D42A
:1011000007E0B3D359016A017B018C012A89398137
:101110004A855B856C857E858F859889DDD363964E
:101120000FB6F894DEBF0FBECDBFDF91CF911F91F8
:101130000F91FF90EF90DF90CF90BF90AF909F9076
:101140008F907F906F905F904F903F902F90089579
:101150002F923F924F925F926F927F928F929F92C7
:10116000AF92BF92CF92DF92EF92FF920F931F93B5
:10117000CF93DF93CDB7DEB7A0970FB6F894DEBF5D
:101180000FBECDBF9E878D87B22FA32FF42FE52FE3
:10119000CB0198014B2F5A2F6F2F7E2F3F564F4E6A
:1011A00059446D4F7F4F8F4F9F4F29013A014B019B
:1011B0001C0160E8A62E71E5B72ECC24C394D12C77
:1011C000E12CF12C00E010E09201A301B401C10177
:1011D000B1D2A1E08AD3E7E0AE2EB12CC12CA8D2C7
:1011E0002B8BF0E8AF2EA9E5BA2EB0E6CB2E80EF20
:1011F000D82E92E0E92E9201A301B401C1019AD246
:10120000288B398B9201A301B401C10191D239011C
:101210004A011B01582E492EA12C22ECB22E37E197
:10122000C32E4CEBD42EE12C9301A40183D2298749
:101230003A8729853A852430310521F443E050E08E
:101240005A874987A985BA859D0140E050E060E052
:1012500070E0CB01A12CB2ECBB2E17E1C12E0CEB40
:10126000D02EE12CF12C00E010E029833A834B834F
:101270005C836D837E838F83988740E050E060E0DD
:1012800070E080E090E061D259016A017B018C013D
:101290009301A401B101852D942D33D339014A0165
:1012A0006D8B7C8B8F879A8B20E8A22E3FE1B32E2B
:1012B00046E8C42E57E0D52EE12CF12C00E010E0DA
:1012C0009301A40137D22B873C87EB85FC85799766
:1012D00020F028E130E03C872B876B857C85AB01D3
:1012E00060E070E080E090E0DC0149835A836B832A
:1012F0007C838D839E83AF83B8879A0140E050E062
:1013000060E070E080E090E005E0AFD2A980BA80B4
:10131000C12CD12CE12CF12C00E010E0F2D201E044
:10132000A4D200E0EED203E0A0D200E0EAD219019C
:101330002A01B62FA72FF82FE92F03E096D25901E3
:101340006A017B018C019101A2016B2F7A2F8F2FF3
:101350009E2FC2D259016A017B01E82F192F04E0A8
:1013600084D20E2FCED259016A017B01E82F192FAA
:1013700004E07BD20E2FC5D207E077D259016A0173
:101380007B018C019301A4016D897C898F859A89E9
:10139000B8D229833F874A8B5C8B6D8B7E8B8F8B7A
:1013A000988FE0E8AE2EF3E3BF2EA1EECA2EDD2427
:1013B000D394E12CF12C00E010E0BCD12D8F3E8FB6
:1013C000AD8DBE8D149720F0E3E0F0E0FE8FED8F41
:1013D000AD8DBE8D1D019D0140E050E060E070E0EC
:1013E00080E090E003E041D2D90148A35F8F6B8F8A
:1013F0007C8FF82FE92F39D259016A017B018C01CA
:101400009D0148A15F8D6B8D7C8D8F2F9E2F64D2A7
:101410005101C12CD12CE12CF12C00E010E05CD268
:1014200059016A017B01E82F192F04E01ED20E2F0B
:1014300068D259016A017B01E82F192F04E015D207
:101440000E2F5FD259016A017B01E82F192F04E0AA
:101450000CD20E2F56D207E008D259016A017B0147
:101460008C0129813F854A895C896D897E898F89B4
:10147000988D47D229013A014B018A8B9F8720E939
:1014800031E0E889F989E29FC001E39F900DF29F66
:10149000900D11241C01FFEB2F1AF9EF3F0A24E6EF
:1014A00049855A85249FC001259F900D1124280E3F
:1014B000391E8B859C85880F991F880F991F280ED0
:1014C000391EAD8DBE8D2A0E3B1EC1014EDC8987B3
:1014D00030E8A32E41E5B42ECC24C394D12CE12CCA
:1014E000F12C00E010E09201A301B4018A899F85EC
:1014F00021D12B8729833A839201A301B4018A89E0
:101500009F8516D129013A014B018A8B9F8750E1B3
:10151000A52E6EE0B62EC12C9201A301B4010AD112
:10152000288B9201A301B4018A899F8501D12901E9
:101530003A014B018C8B9A8B7CE3A72EB12C920144
:10154000A301B401F7D02F879201A301B4018C89C4
:101550009A89EED0F22EE985B4E3EB9FB001112415
:1015600068567F4F41E050E0CE2ED12C29813A8140
:10157000C901A0E0B0E0E42EFA01EE0FFF1FEE0F6C
:10158000FF1FE60FF71F0081118122813381801731
:101590009107A207B30798F48B858F5F9DE09C9D10
:1015A000D0019D9DB00D1124A40FB51FAA0FBB1F24
:1015B000AA0FBB1FAC56BF4F9C91891B08C04F5F41
:1015C0005F4F4D305105B9F6BDE0EB2E81E0AD85A2
:1015D000BE851696FC921697EF851596EC93159797
:1015E000F8891496FC93149712968C93129711967F
:1015F000EC92119780E3820D8C932B89211102C00C
:1016000087E001C08B89AD85BE8513968C931397B7
:10161000CD01A0960FB6F894DEBF0FBECDBFDF910F
:10162000CF911F910F91FF90EF90DF90CF90BF90DF
:10163000AF909F908F907F906F905F904F903F9072
:101640002F900895CF93DF93CDB7DEB727970FB6CE
:10165000F894DEBF0FBECDBF8FEF87BB8CE384BB9A
:1016600088EF81BB19BE80EA8FBD8FB582608FBDC8
:1016700088E18EBD8EB581608EBD81EA9BE397BD0A
:1016800086BD84E797E09BBD8ABD8DE190E099BD62
:1016900088BD89B7846089BF80EC87B98FE886B937
:1016A0000CDB13DBCDD9CE010196F7D981110EC029
:1016B00000E010E020E030E040E050E060E070E06A
:1016C000CE01019645DDCE01019672DAE3D578941C
:1016D00061E082E291E01CDB2BE78CE392E0215099
:1016E00080409040E1F700C0000002D9369AF4CF64
:1016F000991B79E004C0991F961708F0961B881F64
:101700007A95C9F780950895AA1BBB1B51E107C0C4
:10171000AA1FBB1FA617B70710F0A61BB70B881F81
:10172000991F5A95A9F780959095BC01CD01089510
:10173000689401C0E8948F929F92CF93DF9356D024
:10174000DF91CF919F908F900895DF93CF931F9358
:101750000F939A9DF02D219FF00D8B9DF00D8A9D8A
:10176000E02DF10D039FF00D029FE00DF11D4E9D48
:10177000E00DF11D5E9DF00D4F9DF00D7F936F9379
:10178000BF92AF925F934F93D501D0D08B01AC0144
:10179000D701CCD0EB01E80FF91FD6011FD02F9154
:1017A0003F91D601C3D0C60FD71FE81FF91FAF91D5
:1017B000BF9114D02F913F91B9D0C60FD71FE81F0A
:1017C000F91FD601B3D0E60FF71F9801BE01CF0174
:1017D00011240F911F91CF91DF910895A7D0460F4B
:1017E000571FC81FD91F08F43196089588249924DB
:1017F000F401E401B0E41B2ED4019D158E049F0476
:10180000E007F10738F4FC014B01CA01B901AD0151
:101810009E011694220F331F441F551F661F771F0A
:10182000881F991F881C991CEE1FFF1FCC1FDD1FEE
:10183000AA1FBB1F8A149B04EC05FD05CE05DF051E
:10184000A007B10748F08A189B08EC09FD09CE09EA
:10185000DF09A00BB10B21601A94E1F62EF494017C
:10186000AF01BE01CD01000C08950F93083090F038
:10187000982F872F762F652F542F432F322F222713
:101880000850F4CF220F331F441F551F661F771FC8
:10189000881F991F0A95B2F70F91089597FB10F8CA
:1018A000169400080F93083098F00850232F342F17
:1018B000452F562F672F782F892F902DF4CF059421
:1018C0009795879577956795579547953795279578
:1018D0000A95AAF70F9108952A0D3B1D4C1D5D1D19
:1018E0006E1D7F1D801F911F08950024A7FD009489
:1018F0002A0F301D401D501D601D701D801D901D44
:1019000008952A193B094C095D096E097F09800B6E
:10191000910B08950024A7FD00942A173005400577
:10192000500560057005800590050895A29FB001DF
:10193000B39FC001A39F01D0B29F700D811D1124E0
:08194000911D0895F894FFCFFA
:101948000404060004030504050505030501050054
:101958000502040104000402020402030103030156
:101968000300030202010200020201010100010258
:1019780004030A0C0B000102000000001F00000015
:101988003B0000005A0000007800000097000000AB
:10199800B5000000D4000000F300000011010000B1
:1019A800300100004E0100006D0100000000000041
:1019B8001F0000003C0000005B00000079000000F0
:1019C80098000000B6000000D5000000F4000000F8
:1019D80012010000310100004F0100006E010000FB
:1019E8006F6B006661696C004F435231413A2000C9
:1019F8002C204F435231423A20002C204144433A94
:061A0800200034320A0048
:00000001FF
